:1000000045C0000061C000005FC000005DC000008E
:10001000F0C50000EEC50000ECC50000EAC5000018
:1000200053C0000051C000004FC0000040C5000098
:100030004BC0000049C0000047C0000045C00000A0
:1000400043C0000041C000003FC000003DC00000B0
:100050003BC0000039C0000037C0000035C00000C0
:1000600033C0000031C000002FC000002DC00000D0
:100070002BC0000029C0000027C0000025C00000E0
:1000800023C0000021C000001FC0000011241FBEBB
:10009000CFEFD0E4DEBFCDBF11E0A0E0B1E0ECEAED
:1000A000F1E100E00BBF02C007900D92A633B1074B
:1000B000D9F721E0A6E3B1E001C01D92A037B20755
:1000C000E1F70FD00C94D4089BCFA0E0B0E0EAE6B3
:1000D000F0E0B1C6809100018F5F80930001E2E003
:1000E000C6C6A4E0B0E0E6E7F0E0A5C620E041E047
:1000F00062E083E063D684E190E09A83898381E0C3
:1001000090E09C838B8382D38B819C81813091058D
:1001100089F580E2C2D4882381F089819A818A3F5F
:10012000910529F480E091E09A8389831FC0898139
:100130009A810A969A83898319C084E0AED4882371
:10014000A9F089819A81811521E0920729F48AEF2B
:1001500090E09A8389830AC089819A8118161906CA
:100160002CF489819A810A979A83898384E690E0A6
:10017000E5D43AC08B819C810097B1F580E28DD4A3
:100180008823B9F089819A8186302FEF920729F46C
:1001900081E09FEF9A83898324C089819A81873087
:1001A0002FEF9207F4F089819A810A979A838983C5
:1001B00018C084E072D48823A1F089819A818130AB
:1001C0002FEF920729F486E09FEF9A83898309C075
:1001D00089819A8199232CF489819A810A969A833C
:1001E000898384E690E0AAD488E057D48823F9F084
:1001F00060E070E080E090E027D48B819C818130CA
:10020000910519F41C821B8208C08B819C81009788
:1002100021F481E090E09C838B8384EF91E08ED485
:1002200089819A819195819591099A8389838981A0
:100230009A8181302FEF92072CF481E09FEF9A830F
:1002400089830AC089819A81813021E0920724F054
:1002500080E091E09A83898329813A8189819A811A
:10026000B901F2D360E080E085D189E091E00DD161
:1002700060E087E07FD1ABD5AA2797FDA095BA2F84
:10028000BC01CD0158D161E080E074D18CE191E0F6
:10029000FCD061E08AE06ED189819A81AA2797FD1E
:1002A000A095BA2FBC01CD0146D19DD4009739F05D
:1002B00061E080E05FD18EE291E0E7D025CF24CFEE
:1002C00080E090E0089581E090E06F9364E06A95AB
:1002D000F1F76F910197C9F708950F931F93CF938B
:1002E000DF9317B13D982898299AC0E0D0E0EBDF62
:1002F0002A9AE9DF06B12A98E6DF2A9AE4DF2A98EB
:10030000249605FF10C09E0140E050E080913A0124
:1003100090913B01A0913C01B0913D012817390714
:100320004A075B0720F39E0140E050E080913A01CC
:1003300090913B01A0913C01B0913D0128173907F4
:100340004A075B0728F082E390E0A0E0B0E004C039
:1003500080E395E7A0E0B0E080933A0190933B0101
:10036000A0933C01B0933D0117B9DF91CF911F914C
:100370000F91089528B190E08F709070880F991FA9
:10038000880F991F237C282B28B92A9A9CDF2A984A
:100390009ACFA2E0B0E0EEECF1E04AC5182F4A8314
:1003A000698357D09ADFF7B008B1299869814A81EB
:1003B000662311F0289A01C0289887B18C6387B909
:1003C000413021F0812F82958F70D4DF812F8F7083
:1003D000D1DFF7B808B92296E5E046C560E042E013
:1003E000D8CF61E042E0D5CF60E041E0D2CF3D9888
:1003F000459A80E395E7A0E0B0E080933A019093BE
:100400003B01A0933C01B0933D01209A219A229A8E
:100410008EE190E093D383E0E7DF86E090E08ED337
:1004200083E0E2DF82E090E089D383E0DDDF82E0F9
:1004300090E084D382E0D8DF82E090E07FD388E24E
:10044000CDDF88E0CBDF81E0C9DF86E0C7DF8CE06D
:10045000C5CF80913E01882321F481E080933E0145
:10046000C6CF0895EF92FF92CF93DF93E82EE70176
:100470007E01F92EE70101C0B4DF89918823E1F7FD
:10048000DF91CF91FF90EF900895ECCF0895AAE00F
:10049000B0E0ECE4F2E0C7C49B01AC011AE06AE012
:1004A000C62ED12CE12CF12C5E010894A11CB11CAC
:1004B000022FCA01B901A70196018BD41150F50191
:1004C000E10FF11D005D922F990F892F880F880F82
:1004D000890F081B0083211531054105510541F79E
:1004E00007C0F601E10FF11D80817BDF1F5F04C0B3
:1004F0006E010894C11CD11C1A3098F32A96EAE0C8
:10050000AEC4EF92FF920F931F937B018C0197FF74
:100510000AC010950095F094E094E11CF11C011DB7
:10052000111D8DE25EDFC801B701B1DF1F910F9190
:10053000FF90EF900895E5CF0895A5E0B0E0E2EADE
:10054000F2E078C4182F80E8898380EC8A8384E9FC
:100550008B8384ED8C83FE01E60FF11D8181810F79
:100560006D833CDF109339016D81609338012596CE
:10057000E3E07CC4E2CF0895A0E0B0E0E1ECF2E07B
:1005800054C4D82E8091360190913701009709F418
:10059000F2C02D2D2A3009F442C02830C9F48091D0
:1005A00039018150809339018F3F51F48091380196
:1005B00081508093380180910201815080933901EC
:1005C000809138018F3F09F0D1C010923801CCC022
:1005D0008D2D07DF809138018823B9F090E00197D5
:1005E0004091020150E0849F9001859F300D949FBF
:1005F000300D112480913901E0913601F0913701DD
:10060000E20FF31FE80FF11DD082809139018F5F57
:100610008093390190910201891709F0ACC0409193
:100620003801242F30E08091010190E001972817D4
:10063000390709F096C0C0E0D0E03FC080E06C2FE1
:100640007CDFCC248E010F5F1F4F32C0EC2CFF24C7
:1006500030E0C29FC001C39F900DD29F900D112426
:10066000E0913601F0913701EE0DFF1DE80FF91F03
:100670008081B7DE8091360190913701209102018F
:1006800030E0C29FF001C39FF00DD29FF00D112406
:100690008E0D9F1DE80FF91F029FD001039FB00D23
:1006A000129FB00D1124A80FB91F8C918083C394A1
:1006B00020910201C21650F2E80160910101862FDB
:1006C00090E00297C817D9070CF4B8CF6230D0F188
:1006D000625080E032DF00E010E230C0C02FD0E096
:1006E0008091010190E0029750E0849F9001859FE6
:1006F000300D949F300D1124E0913601F0913701B7
:10070000EC0FFD1FE20FF31F80816BDE8091010172
:1007100090E002974091020150E0849F9001859FF4
:10072000300D949F300D1124E0913601F091370186
:10073000EC0FFD1FE20FF31F10830F5F40910201CA
:10074000041760F260910101615080E0F6DE10E074
:1007500003C080E246DE1F5F809102011817C8F3D4
:1007600003C04F5F409338011092390180913901E5
:1007700060913801E2DE2D2D332727FD3095C90128
:10078000CDB7DEB7E8E06DC38091360190913701B7
:10079000009709F00FD42091010130E02150304042
:1007A0008091020190E0AC01249FC001259F900D33
:1007B000349F900D112466D39093370180933601B6
:1007C000009719F1A0E0B0E208C0E0913601F09185
:1007D0003701E20FF31FB083AF5F2A2F30E0809123
:1007E000010190E001976091020170E0869FA001F5
:1007F000879F500D969F500D1124241735072CF319
:100800008CEB92E060E671E064C40895BDCF08957A
:10081000FC011182108213821282158214821682C8
:10082000683068F489E290E0918380838BE290E005
:10083000938382838AE290E09583848323C060312E
:1008400080F483E290E09183808385E290E093835B
:10085000828384E290E09583848370E068507040E6
:1008600011C06831C0F486E290E09183808388E211
:1008700090E09383828387E290E09583848370E0A5
:100880006051704081E090E002C0880F991F6A9526
:10089000E2F7868308956032C0F480E290E09183AD
:1008A000808382E290E09383828381E290E095836B
:1008B00084832FE130E0261B310981E090E002C003
:1008C000880F991F2A95E2F786830895FC01A48179
:1008D000B5818681662321F09C91982B9C93089585
:1008E0009C91809589238C930895FC016F3F31F48E
:1008F000A281B3818C91968189270CC0A281B3819A
:100900008681662321F09C91982B9C9308959C915D
:10091000809589238C930895A7E0B0E0E1E9F4E0A5
:1009200087C2282FF62E8E010F5F1F4FC801622F3E
:100930006FDFC8016F2DD9DFC80161E0C7DF2796DF
:10094000E5E092C283E08093B00082E08093B10042
:10095000E4EBF0E0108280818093B30087E160E0F7
:10096000DBDF86E160E0D8DF87E060E0D5DF86E0AE
:1009700060E0D2CF80913F01882321F481E0809311
:100980003F01E0CF0895CF93DF93EC01F3DFD7FF72
:1009900005C0D095C195DF4F91E001C090E0CF3FF9
:1009A000D10519F014F0CFEFD0E0C093B300209739
:1009B00031F48091B0008F778093B0000DC08091AA
:1009C000B00080688093B000992319F087E161E05E
:1009D00002C087E160E0A0DFDF91CF910895CF935F
:1009E000DF93EC01C7DFD7FF05C0D095C195DF4F7E
:1009F00091E001C090E0CF3FD10519F014F0CFEFA6
:100A0000D0E0C093B400209731F48091B0008F7D86
:100A10008093B0000DC08091B00080628093B000E0
:100A2000992319F086E161E002C086E160E074DF9D
:100A3000DF91CF910895CF93DF93EB01A4DFCE0137
:100A4000CEDFDF91CF910895F6CF089587B1837DF2
:100A500087B988B18C6288B985E090E06F9364E0D3
:100A60006A95F1F76F910197C9F708958091400158
:100A7000882321F481E080934001E8CF0895A1E02C
:100A8000B0E0E4E4F5E0D7C18983F0DF96B190955A
:100A9000898189232196E2E0EAC1F1CF08956F931D
:100AA00064E06A95F1F76F910197C9F708952F9265
:100AB0008F939F932FB680914E0190914F01019695
:100AC00080934E0190934F0190E080915001891FD7
:100AD00080935001909156019C5F909356018091B4
:100AE000550180519742C0F0909356018093550173
:100AF0008091510190915201019680935101909300
:100B0000520190E080915301891F8093530180919D
:100B10005401891F809354012FBE9F918F912F9074
:100B20001895CF93DF93EC0104C088EE93E0B7DF14
:100B300021972097D1F7DF91CF910895F2CF0895B3
:100B4000A7E0B0E0E5EAF5E076C1682FCE010196B6
:100B50005FDE89819A818032910531F480916B004A
:100B60009F81892B80936B0089819A8183329105C3
:100B700031F480916C009F81892B80936C00898176
:100B80009A818632910531F480916D009F81892B85
:100B900080936D0089819A818932910531F4809129
:100BA00073009F81892B80937300ED81FE8190817A
:100BB0008F818095892380838FEF809368002796AB
:100BC000E2E055C1A7E0B0E0E7EEF5E034C1682F00
:100BD000CE0101961DDEE981FA8190818F81892302
:100BE0002796E2E044C1809159011092590190E0AA
:100BF00008951F920F920FB60F920BB60F92112409
:100C0000FF920F931F932F933F934F935F936F9395
:100C10007F938F939F93AF93BF93EF93FF938091B5
:100C20005E01D0DFF82E80916001CCDF182F80911B
:100C30005F01C8DF082F80916101C4DF409163012B
:100C4000609162015091650190916401F41651F038
:100C500020915C0130915D012F5F3F4F30935D012A
:100C600020935C01061751F020915C0130915D01E9
:100C70002150304030935D0120935C01151751F0F5
:100C800020915A0130915B012F5F3F4F30935B0100
:100C900020935A01891751F020915A0130915B013C
:100CA0002150304030935B0120935A01EF2DF0E04A
:100CB000772767FD7095E617F70759F0602F70E00A
:100CC000552747FD50956417750719F021E02093CB
:100CD0005901412F50E0292F332727FD3095421726
:100CE000530769F0482F50E020916501332727FD15
:100CF00030954217530719F091E090935801F09204
:100D00006201009363011093640180936501FF9178
:100D1000EF91BF91AF919F918F917F916F915F9173
:100D20004F913F912F911F910F91FF900F900BBE0C
:100D30000F900FBE0F901F901895A3E0B0E0E2EA6D
:100D4000F6E079C080935E0160935F01409360019B
:100D500020936101F8942B834A836983F1DE6981D2
:100D6000862FEEDE4A81842FEBDE2B81822FE8DE98
:100D700010925D0110925C0110925B0110925A0179
:100D8000109259011092580180915E011BDF8093EF
:100D9000620180915F0116DF8093630180916001A1
:100DA00011DF80936401809161010CDF8093650104
:100DB0008FEF8BBB78942396E2E059C0BECF0895A5
:100DC000F89480915C0190915D0178940895F8CF3A
:100DD0000895A1E21A2EAA1BBB1BFD010DC0AA1F7C
:100DE000BB1FEE1FFF1FA217B307E407F50720F094
:100DF000A21BB30BE40BF50B661F771F881F991F0F
:100E00001A9469F760957095809590959B01AC0157
:100E1000BD01CF0108952F923F924F925F926F9242
:100E20007F928F929F92AF92BF92CF92DF92EF927A
:100E3000FF920F931F93CF93DF93CDB7DEB7CA1BFB
:100E4000DB0B0FB6F894DEBF0FBECDBF09942A8826
:100E5000398848885F846E847D848C849B84AA84CE
:100E6000B984C884DF80EE80FD800C811B81AA815B
:100E7000B981CE0FD11D0FB6F894DEBF0FBECDBF26
:100E8000ED010895CF93DF938230910510F482E055
:100E900090E0E0916801F091690120E030E0A0E08D
:100EA000B0E0309739F14081518148175907B8F0C7
:100EB0004817590771F482819381109729F013968E
:100EC0009C938E9312972CC0909369018093680134
:100ED00027C02115310531F04217530718F0A90139
:100EE000DB0101C0EF019A01BD01DF010280F38146
:100EF000E02DD7CF21153105F9F0281B390B24300F
:100F0000310580F48A819B816115710521F0FB0117
:100F10009383828304C09093690180936801FE01EA
:100F2000329644C0FE01E20FF31F81939193225049
:100F30003109398328833AC02091660130916701D5
:100F4000232B41F420910501309106013093670174
:100F50002093660120910301309104012115310590
:100F600041F42DB73EB74091070150910801241B71
:100F7000350BE0916601F0916701E217F307A0F4E9
:100F80002E1B3F0B2817390778F0AC014E5F5F4FDF
:100F90002417350748F04E0F5F1F509367014093A9
:100FA00066018193919302C0E0E0F0E0CF01DF9110
:100FB000CF910895CF93DF93009709F487C0FC0188
:100FC000329713821282C0916801D09169012097F3
:100FD00081F420813181280F391F80916601909121
:100FE00067018217930779F5F0936701E093660133
:100FF0006DC0DE0120E030E0AE17BF0750F412965E
:101000004D915C9113979D014115510509F1DA014C
:10101000F3CFB383A28340815181840F951F8A1738
:101020009B0771F48D919C911197840F951F0296E7
:101030009183808312968D919C91139793838283E1
:101040002115310529F4F0936901E09368013EC050
:10105000D9011396FC93EE9312974D915D91A40FD5
:10106000B51FEA17FB0779F480819181840F951FE2
:101070000296D90111969C938E9382819381139647
:101080009C938E931297E0E0F0E08A819B81009719
:1010900019F0FE01EC01F9CFCE01029628813981C9
:1010A000820F931F2091660130916701281739073D
:1010B00069F4309729F4109269011092680102C016
:1010C00013821282D0936701C0936601DF91CF91A2
:1010D00008950F931F93CF93DF93EC018B0100973B
:1010E00031F46115710519F480E090E037C06EE0CD
:1010F00070E081E090E037D0FC010097A9F380E830
:1011000083830115110571F01387028781E88383BA
:1011100080916A0190916B01892B21F4F0936B010E
:10112000E0936A012097C9F0D187C08783818260EC
:10113000838380916C0190916D01892B71F4F09300
:101140006D01E0936C0180916E0190916F01892B8C
:1011500021F4F0936F01E0936E01CF01DF91CF9105
:101160001F910F9108950F931F93CF93DF93869F45
:101170008001879F100D969F100D1124C80182DEFB
:10118000EC01009721F0A80160E070E006D0CE01EC
:10119000DF91CF911F910F910895DC0101C06D93F4
:0C11A00041505040E0F70895F894FFCF54
:1011AC00010210000070012000436F756E743A202C
:1011BC002020202020202020202020005370656536
:1011CC00643A20202020202020202020200045725E
:0611DC00726F7220310069
:00000001FF
